{
  "_format": "hh-sol-artifact-1",
  "contractName": "Keyboards",
  "sourceName": "contracts/Keyboards.sol",
  "abi": [
    {
      "inputs": [
        {
          "internalType": "string",
          "name": "name",
          "type": "string"
        }
      ],
      "name": "create",
      "outputs": [],
      "stateMutability": "nonpayable",
      "type": "function"
    },
    {
      "inputs": [
        {
          "internalType": "uint256",
          "name": "",
          "type": "uint256"
        }
      ],
      "name": "createdKeybaords",
      "outputs": [
        {
          "internalType": "string",
          "name": "",
          "type": "string"
        }
      ],
      "stateMutability": "view",
      "type": "function"
    },
    {
      "inputs": [],
      "name": "getKeyboards",
      "outputs": [
        {
          "internalType": "string[]",
          "name": "",
          "type": "string[]"
        }
      ],
      "stateMutability": "view",
      "type": "function"
    }
  ],
  "bytecode": "0x608060405234801561001057600080fd5b50610764806100206000396000f3fe608060405234801561001057600080fd5b50600436106100415760003560e01c806352810aa114610046578063b6a46b3b14610064578063dea349a514610080575b600080fd5b61004e6100b0565b60405161005b91906104f9565b60405180910390f35b61007e60048036038101906100799190610394565b610189565b005b61009a600480360381019061009591906103d5565b6101c8565b6040516100a7919061051b565b60405180910390f35b60606000805480602002602001604051908101604052809291908181526020016000905b828210156101805783829060005260206000200180546100f390610645565b80601f016020809104026020016040519081016040528092919081815260200182805461011f90610645565b801561016c5780601f106101415761010080835404028352916020019161016c565b820191906000526020600020905b81548152906001019060200180831161014f57829003601f168201915b5050505050815260200190600101906100d4565b50505050905090565b6000819080600181540180825580915050600190039060005260206000200160009091909190915090805190602001906101c4929190610274565b5050565b600081815481106101d857600080fd5b9060005260206000200160009150905080546101f390610645565b80601f016020809104026020016040519081016040528092919081815260200182805461021f90610645565b801561026c5780601f106102415761010080835404028352916020019161026c565b820191906000526020600020905b81548152906001019060200180831161024f57829003601f168201915b505050505081565b82805461028090610645565b90600052602060002090601f0160209004810192826102a257600085556102e9565b82601f106102bb57805160ff19168380011785556102e9565b828001600101855582156102e9579182015b828111156102e85782518255916020019190600101906102cd565b5b5090506102f691906102fa565b5090565b5b808211156103135760008160009055506001016102fb565b5090565b600061032a61032584610562565b61053d565b90508281526020810184848401111561034257600080fd5b61034d848285610603565b509392505050565b600082601f83011261036657600080fd5b8135610376848260208601610317565b91505092915050565b60008135905061038e81610717565b92915050565b6000602082840312156103a657600080fd5b600082013567ffffffffffffffff8111156103c057600080fd5b6103cc84828501610355565b91505092915050565b6000602082840312156103e757600080fd5b60006103f58482850161037f565b91505092915050565b600061040a8383610487565b905092915050565b600061041d826105a3565b61042781856105c6565b93508360208202850161043985610593565b8060005b85811015610475578484038952815161045685826103fe565b9450610461836105b9565b925060208a0199505060018101905061043d565b50829750879550505050505092915050565b6000610492826105ae565b61049c81856105d7565b93506104ac818560208601610612565b6104b581610706565b840191505092915050565b60006104cb826105ae565b6104d581856105e8565b93506104e5818560208601610612565b6104ee81610706565b840191505092915050565b600060208201905081810360008301526105138184610412565b905092915050565b6000602082019050818103600083015261053581846104c0565b905092915050565b6000610547610558565b90506105538282610677565b919050565b6000604051905090565b600067ffffffffffffffff82111561057d5761057c6106d7565b5b61058682610706565b9050602081019050919050565b6000819050602082019050919050565b600081519050919050565b600081519050919050565b6000602082019050919050565b600082825260208201905092915050565b600082825260208201905092915050565b600082825260208201905092915050565b6000819050919050565b82818337600083830152505050565b60005b83811015610630578082015181840152602081019050610615565b8381111561063f576000848401525b50505050565b6000600282049050600182168061065d57607f821691505b60208210811415610671576106706106a8565b5b50919050565b61068082610706565b810181811067ffffffffffffffff8211171561069f5761069e6106d7565b5b80604052505050565b7f4e487b7100000000000000000000000000000000000000000000000000000000600052602260045260246000fd5b7f4e487b7100000000000000000000000000000000000000000000000000000000600052604160045260246000fd5b6000601f19601f8301169050919050565b610720816105f9565b811461072b57600080fd5b5056fea2646970667358221220963901c9a1f4e8a81a45108156e27a8aa4f6f7c66da7d4634474ea7cb0de744564736f6c63430008040033",
  "linkReferences": {},
  "deployedLinkReferences": {}
}