{
  "_format": "hh-sol-artifact-1",
  "contractName": "Keyboards",
  "sourceName": "contracts/Keyboards.sol",
  "abi": [
    {
      "inputs": [
        {
          "internalType": "enum Keyboards.KeyboardKind",
          "name": "_kind",
          "type": "uint8"
        },
        {
          "internalType": "bool",
          "name": "_isPBT",
          "type": "bool"
        },
        {
          "internalType": "string",
          "name": "_filter",
          "type": "string"
        }
      ],
      "name": "create",
      "outputs": [],
      "stateMutability": "nonpayable",
      "type": "function"
    },
    {
      "inputs": [
        {
          "internalType": "uint256",
          "name": "",
          "type": "uint256"
        }
      ],
      "name": "createdKeybaords",
      "outputs": [
        {
          "internalType": "enum Keyboards.KeyboardKind",
          "name": "kind",
          "type": "uint8"
        },
        {
          "internalType": "bool",
          "name": "isPBT",
          "type": "bool"
        },
        {
          "internalType": "string",
          "name": "filter",
          "type": "string"
        }
      ],
      "stateMutability": "view",
      "type": "function"
    },
    {
      "inputs": [],
      "name": "getKeyboards",
      "outputs": [
        {
          "components": [
            {
              "internalType": "enum Keyboards.KeyboardKind",
              "name": "kind",
              "type": "uint8"
            },
            {
              "internalType": "bool",
              "name": "isPBT",
              "type": "bool"
            },
            {
              "internalType": "string",
              "name": "filter",
              "type": "string"
            }
          ],
          "internalType": "struct Keyboards.Keyboard[]",
          "name": "",
          "type": "tuple[]"
        }
      ],
      "stateMutability": "view",
      "type": "function"
    }
  ],
  "bytecode": "0x608060405234801561001057600080fd5b50610a2b806100206000396000f3fe608060405234801561001057600080fd5b50600436106100415760003560e01c806352810aa114610046578063d80ad43114610064578063dea349a514610080575b600080fd5b61004e6100b2565b60405161005b91906107ce565b60405180910390f35b61007e600480360381019061007991906105b2565b610245565b005b61009a6004803603810190610095919061061e565b6103aa565b6040516100a9939291906107f0565b60405180910390f35b60606000805480602002602001604051908101604052809291908181526020016000905b8282101561023c57838290600052602060002090600202016040518060600160405290816000820160009054906101000a900460ff166003811115610144577f4e487b7100000000000000000000000000000000000000000000000000000000600052602160045260246000fd5b600381111561017c577f4e487b7100000000000000000000000000000000000000000000000000000000600052602160045260246000fd5b81526020016000820160019054906101000a900460ff161515151581526020016001820180546101ab90610902565b80601f01602080910402602001604051908101604052809291908181526020018280546101d790610902565b80156102245780601f106101f957610100808354040283529160200191610224565b820191906000526020600020905b81548152906001019060200180831161020757829003601f168201915b505050505081525050815260200190600101906100d6565b50505050905090565b6000604051806060016040528086600381111561028b577f4e487b7100000000000000000000000000000000000000000000000000000000600052602160045260246000fd5b8152602001851515815260200184848080601f016020809104026020016040519081016040528093929190818152602001838380828437600081840152601f19601f820116905080830192505050505050508152509050600081908060018154018082558091505060019003906000526020600020906002020160009091909190915060008201518160000160006101000a81548160ff0219169083600381111561035f577f4e487b7100000000000000000000000000000000000000000000000000000000600052602160045260246000fd5b021790555060208201518160000160016101000a81548160ff02191690831515021790555060408201518160010190805190602001906103a0929190610486565b5050505050505050565b600081815481106103ba57600080fd5b90600052602060002090600202016000915090508060000160009054906101000a900460ff16908060000160019054906101000a900460ff169080600101805461040390610902565b80601f016020809104026020016040519081016040528092919081815260200182805461042f90610902565b801561047c5780601f106104515761010080835404028352916020019161047c565b820191906000526020600020905b81548152906001019060200180831161045f57829003601f168201915b5050505050905083565b82805461049290610902565b90600052602060002090601f0160209004810192826104b457600085556104fb565b82601f106104cd57805160ff19168380011785556104fb565b828001600101855582156104fb579182015b828111156104fa5782518255916020019190600101906104df565b5b509050610508919061050c565b5090565b5b8082111561052557600081600090555060010161050d565b5090565b600081359050610538816109b7565b92915050565b60008135905061054d816109ce565b92915050565b60008083601f84011261056557600080fd5b8235905067ffffffffffffffff81111561057e57600080fd5b60208301915083600182028301111561059657600080fd5b9250929050565b6000813590506105ac816109de565b92915050565b600080600080606085870312156105c857600080fd5b60006105d68782880161053e565b94505060206105e787828801610529565b935050604085013567ffffffffffffffff81111561060457600080fd5b61061087828801610553565b925092505092959194509250565b60006020828403121561063057600080fd5b600061063e8482850161059d565b91505092915050565b6000610653838361077e565b905092915050565b60006106668261083e565b6106708185610861565b9350836020820285016106828561082e565b8060005b858110156106be578484038952815161069f8582610647565b94506106aa83610854565b925060208a01995050600181019050610686565b50829750879550505050505092915050565b6106d981610894565b82525050565b6106e881610894565b82525050565b6106f7816108bd565b82525050565b610706816108bd565b82525050565b600061071782610849565b6107218185610872565b93506107318185602086016108cf565b61073a81610992565b840191505092915050565b600061075082610849565b61075a8185610883565b935061076a8185602086016108cf565b61077381610992565b840191505092915050565b600060608301600083015161079660008601826106ee565b5060208301516107a960208601826106d0565b50604083015184820360408601526107c1828261070c565b9150508091505092915050565b600060208201905081810360008301526107e8818461065b565b905092915050565b600060608201905061080560008301866106fd565b61081260208301856106df565b81810360408301526108248184610745565b9050949350505050565b6000819050602082019050919050565b600081519050919050565b600081519050919050565b6000602082019050919050565b600082825260208201905092915050565b600082825260208201905092915050565b600082825260208201905092915050565b60008115159050919050565b60008190506108ae826109a3565b919050565b6000819050919050565b60006108c8826108a0565b9050919050565b60005b838110156108ed5780820151818401526020810190506108d2565b838111156108fc576000848401525b50505050565b6000600282049050600182168061091a57607f821691505b6020821081141561092e5761092d610963565b5b50919050565b7f4e487b7100000000000000000000000000000000000000000000000000000000600052602160045260246000fd5b7f4e487b7100000000000000000000000000000000000000000000000000000000600052602260045260246000fd5b6000601f19601f8301169050919050565b600481106109b4576109b3610934565b5b50565b6109c081610894565b81146109cb57600080fd5b50565b600481106109db57600080fd5b50565b6109e7816108b3565b81146109f257600080fd5b5056fea26469706673582212200f2f7c0529d87670747c420f1f14b7517ab21b6eea37d81e9ae58996e7587fb964736f6c63430008040033",
  "linkReferences": {},
  "deployedLinkReferences": {}
}